:100000002EC2000054C2000052C2000050C20000C4
:100010004EC200004CC200004AC2000048C20000AC
:1000200046C2000094C600000C94100A0C94A20A68
:100030003EC200003CC200003AC2000038C20000CC
:1000400036C2000034C2000032C2000030C20000DC
:100050002EC200002CC200002AC200000C940E091F
:1000600026C2000024C2000022C2000020C20000FC
:100070001EC200001CC200001AC2000018C200000C
:1000800016C2000014C2000012C2000010C200001C
:100090000EC200000CC200000AC2000008C200002C
:1000A00006C2000004C2000002C2000000C201003B
:1000B0000100110011000C0000E100000A00250001
:1000C0002500210000960000190039003900360093
:1000D000127A00001F0046004600440080700000B5
:1000E00022004D004D004A00004B00003600750014
:1000F00075007200403800004A009C009C00990086
:10010000802500007200EC00EC00E900C012000045
:10011000E900DA01DA01D70160090000D701B6036E
:10012000B603B303B0040000B3036E076E076B079A
:10013000580200006E07DC0EDC0ED80E2C01000009
:10014000DC0EC11DC11DBE1D012302230423082393
:1001500080230129022904290829402680264029D4
:100160008029102320234023802F402F202F102F61
:10017000022F012F10292029402C7DFD7DFB7DF7CA
:100180007DEF7DDF7E7F7EBF7EDF7EEF7EFD7EFEAC
:100190007DFE00010000DA03120002000038028D2B
:1001A000002200009B033F002100004A02090022B8
:1001B00001003B0338002101006302090022020014
:1001C000C50221002102007C020900220300E60290
:1001D00055002103009C020900220400730328003B
:1001E000210400B5020900030000340204010309E0
:1001F00004F4013E3E035400650065006E00730088
:10020000790020004B006500790062006F006100FA
:10021000720064002F004D006F00750073006500D0
:100220002F004A006F0079007300740069006300BA
:100230006B0000000403090409028D00050100C0E1
:10024000320904000001030101000921110100012C
:10025000223F000705830308000109040100010390
:100260000102000921110100012238000705840361
:100270000800010904020002030000000921110125
:100280000001222100070581034000010705020348
:1002900020000209040300010300000009211101EC
:1002A0000001225500070585030C00020904040023
:1002B00001030000000921110100012228000705A7
:1002C000860308000406C9FF0904A15C750815002F
:1002D00026FF0095400975810295200976910295C7
:1002E000040976B102C005010904A1011500250128
:1002F000750195200509190129208102150025079E
:100300003500463B017504950165140501093981E5
:100310004205010901A100150026FF03750A950495
:1003200009300931093209358102C0150026FF0361
:10033000750A9502093609368102C005010902A134
:100340000105091901290815002501950875018184
:100350000205010930093109381581257F75089595
:10036000038106050C0A38021581257F7508950161
:100370008106C0050C0901A101750A950419002A1E
:100380009C021500269C0281000501750895031941
:100390000029B7150026B7008100C005010906A194
:1003A0000175019508050719E029E7150025018168
:1003B0000295017508810395057501050819012944
:1003C00005910295017503910395067508150025A1
:1003D0007F05071900297F8100C01201000200007B
:1003E0000040C0168204710200010001C136C0261F
:1003F000C106C106C116C1062C5E74606162643418
:100400006667656E362D3738271E1F20212223246C
:1004100025267333762E77785F4445464748494A08
:100420004B4C4D4E4F505152535455565758595AA4
:100430005B5C5D2F3130636D350405060708090AE2
:100440000B0C0D0E0F101112131415161718191A84
:100450001B1C1D6F7170752A1C05C10E220511240D
:100460001FBECFEFDAE0DEBFCDBF14E0A0E0B1E009
:10047000E4EAFFE102C005900D92AA3EB107D9F768
:1004800025E0AAEEB4E001C01D92A63EB207E1F756
:1004900012E0CEE2D2E004C02197FE010E942F0FAD
:1004A000CC32D107C9F70E94E20C0C94C60FA8CD3C
:1004B000FB0101900020E9F73197AF01461B570B74
:1004C000DC01ED91FC910280F381E02D09940F9302
:1004D0001F93CF93DF93EC01EBDF8C01CE010E94E1
:1004E000C80C800F911FDF91CF911F910F9108953C
:1004F00068E771E08EE695E0EADF62E871E08EE69B
:1005000095E0E5DF6EEB71E08EE695E0E0DF69EE09
:1005100071E08EE695E0DBDF6BE172E08EE695E060
:10052000D6DF66E472E08EE695E0D1DF63E772E045
:100530008EE695E0CCDF6EEA72E08EE695E0C7DFEE
:1005400060EE72E08EE695E0C2DF62E374E08EE674
:1005500095E0BDDF63E173E08EE695E0B8DF6DE323
:1005600073E08EE695E0B3DF6DE573E08EE695E02F
:10057000AECF8F929F92AF92BF92CF92DF92EF92C7
:10058000FF920F931F93CF93DF935B018C01F12CAC
:10059000E12CD12CC12CEA14FB040CF058C0F8015A
:1005A000C081D1818CE6882E81E0982EF401608193
:1005B0007181CE010E94720F892B29F4F40182818E
:1005C0009381C82AD92AF4E08F0E911C88E78816F7
:1005D00081E0980659F7C0E0D1E068817981F8019F
:1005E000808191810E94720F892B31F5B60187EDD0
:1005F00095E00E94490D87ED95E00E944F0D6A81BC
:1006000087ED95E00E944C0D87ED95E00E944F0D1F
:100610006AE070E080E090E041D670E060E087ED55
:1006200095E00E94490D60E087ED95E00E944C0D39
:1006300087ED95E00E944F0D2496F1E0CC36DF0760
:1006400061F68FEFE81AF80A0E5F1F4FA4CFDF9113
:10065000CF911F910F91FF90EF90DF90CF90BF90BF
:10066000AF909F908F9008954F925F926F927F927C
:100670008F929F92AF92BF92CF92DF92EF92FF92B2
:100680000F93CF93DF93CDB7DEB728970FB6F894CB
:10069000DEBF0FBECDBF4B015C0129013A0180E4F2
:1006A00090E09A83898300E020E040E860E886EDEE
:1006B00095E00E94F90DA981BA811197BA83A983A7
:1006C000AB2B89F79FE7C92ED12CE12CF12CC5016A
:1006D000B401A70196010E94130F29833A834B832B
:1006E0005C83C301B201A70196010E94130F2D8301
:1006F0003E834F835887C12CD12C76018D819E81FA
:10070000AF81B885C816D906EA06FB0674F400E086
:1007100020E04FE760E086ED95E00E94F90D9FEF45
:10072000C91AD90AE90AF90AE9CFC12CD12C7601F4
:1007300089819A81AB81BC81C816D906EA06FB067D
:1007400074F400E020E040E06FE786ED95E00E9461
:10075000F90D9FEFC91AD90AE90AF90AE9CF8FE71B
:10076000C82ED12CE12CF12CC301B201A7019601B6
:100770000E94130F6983C501B401A70196010E946D
:10078000130F00E020E0498186ED95E00E94F90D0D
:1007900028960FB6F894DEBF0FBECDBFDF91CF9184
:1007A0000F91FF90EF90DF90CF90BF90AF909F9010
:1007B0008F907F906F905F904F9008950F931F934D
:1007C000CF93DF938B0161E374E00E946F0FE80128
:1007D0008993999301E010E061E374E090E080E098
:1007E0000E946F0F89939993892B31F00A3011057C
:1007F00019F00F5F1F4FF0CFC801DF91CF911F910C
:100800000F910895CF92DF92EF92FF920F931F9373
:10081000CF93DF93CDB7DEB7C459D1090FB6F894A3
:10082000DEBF0FBECDBF8C0140E850E0BC01CE0161
:1008300001960E947B0FBE016F577F4FC801BEDF3C
:100840008C016FE873E0892B91F0CF57DF4FE88080
:10085000F980C158D04065E973E0C7010E94720F6A
:10086000892BA9F40230110534F469E973E08EE6AE
:1008700095E02DDEA6C0B8016150710981E890E0D5
:100880008C0F9D1F029675DE6FE973E0F0CF62EA70
:1008900073E0C7010E94720F892B51F402301105D9
:1008A00024F3BE016B5F7F4F87ED95E001DEECCF57
:1008B00063EE71E0C7010E94720F892B09F06FC0CF
:1008C0000230110594F2CD57DF4FE880F980C3580C
:1008D000D04066EA73E0C7010E94720F892BD1F401
:1008E000043011050CF4C1CFC957DF4F88819981BD
:1008F000C758D0400E94490F6B017C01CB57DF4F96
:1009000088819981C558D0400E94490FA70196015E
:10091000ABDEBACF6EEA73E0C7010E94720F892B7B
:1009200031F461E086ED95E00E94370EADCF6BEAC1
:1009300073E0C7010E94720F892B59F461E086EDC4
:1009400095E00E94370E64E670E080E090E0A6D467
:10095000E8CF64EB73E0C7010E94720F892B31F47A
:1009600061E086ED95E00E944D0E8ECF6AEB73E05C
:10097000C7010E94720F892B31F461E086ED95E08A
:100980000E945D0E81CF62EC73E08EE695E09FDD04
:10099000CD57DF4F68817981C358D04068CF68EC6C
:1009A00073E0C7010E94720F60ED73E0892B09F4B8
:1009B0005ECF69ED73E0C7010E94720F892B89F445
:1009C00097DDCC56DF4F0FB6F894DEBF0FBECDBF1C
:1009D000DF91CF911F910F91FF90EF90DF90CF901B
:1009E00008956EED73E0C7010E94720F892B39F4F0
:1009F0008091860591E0892780938605E2CF63EE9A
:100A000073E035CF22982A98239A40E855E260E0B7
:100A100070E08EE695E02CD269EE73E08EE695E00C
:100A200056DD6EE074E08EE695E051DD69EE73E030
:100A30008EE695E04CDD5CCD20E043E062E08EE6A2
:100A400095E0EDC18EE695E0D1C28EE695E06DD0E1
:100A5000181619065CF58EE695E02CD0E091EC04B2
:100A6000F091ED04E251FB4F80839091860599232C
:100A700021F0682F8EE695E010D18091EC049091E2
:100A8000ED04FC01E251FB4F20812D3011F02A30A2
:100A900041F410821092ED041092EC048EEE94E07A
:100AA000B1CE01969093ED048093EC04089590E00C
:100AB00080E008952091C9053091CA0528173907AB
:100AC000B9F49091870580918805981789F0E09195
:100AD0008705F0E0E757FA4F80812091870530E0E5
:100AE0002F5F3F4F2F7333272093870590E00895A2
:100AF0008FEF9FEF08952091C9053091CA052817FF
:100B0000390781F49091870580918805981751F0F5
:100B1000E0918705F0E0E757FA4F8081082E000C3E
:100B2000990B08958FEF9FEF08952091C90530919B
:100B3000CA052817390771F4809188052091870527
:100B400090E0805C9F4F821B910960E470E00C9400
:100B5000DE0E089590E080E008952091C90530915F
:100B6000CA052817390739F48FB7F8941092880509
:100B7000109287058FBF0895DC011D96ED91FC91C1
:100B80001E9790811C968C9180958923808308956F
:100B900020E001972FEF8F3F9207D9F7089520911A
:100BA000C9053091CA052817390789F0FC01278942
:100BB0002E7F278B2FB7F894109288051092870507
:100BC0009093CA058093C9052FBF81E0089580E006
:100BD0000895EF92FF920F931F93CF93DF93EC0151
:100BE000EA85FB8599858F8981FF0AC080818923E9
:100BF00051F4DF91CF911F910F91FF90EF900895E5
:100C000080818923B1F78F859889C2DF88E0E82E3B
:100C1000F12C10E001E089899A89BADFEA85FB8529
:100C200080819985892331F1102B000F81E0E81A2A
:100C3000F10889F78B899C89ABDF8F8981FD10953D
:100C4000809188052091870590E001968F73992700
:100C50002817190699F0E0918805F0E0E757FA4F58
:100C600010838091880590E001968F739927809377
:100C70008805BFCF802F80951823D7CF8F898160BB
:100C80008F8BB7CFFC01611101C076CFA585B685EA
:100C90009C918485892B8C930895DF92EF92FF922B
:100CA0000F931F93CF93DF93EC018D899E89892B3E
:100CB00061F481E08A8390E080E0DF91CF911F9121
:100CC0000F91FF90EF90DF900895162FDFB6F89404
:100CD0006F8966956170CE01D5DF8D899E890596F5
:100CE00057DF8F8998E0E92EF12C01E081FF1AC0CF
:100CF000812F802399F0CE013FDF8D899E8948DFC7
:100D0000000F81E0E81AF10899F7CE0135DFDFBE68
:100D10008D899E893DDF81E090E0CFCF61E0CE01FB
:100D2000B1DFEBCF812F802379F061E0CE01AADF24
:100D30008D899E892DDF000F81E0E81AF10891F777
:100D400061E0CE019FDFE3CFCE0116DFF1CF1F922E
:100D50000F920FB60F9211242F933F934F935F93EF
:100D60006F937F938F939F93AF93BF93EF93FF9373
:100D70008091C9059091CA05009709F02ADFFF917B
:100D8000EF91BF91AF919F918F917F916F915F9103
:100D90004F913F912F910F900FBE0F901F9018957C
:100DA0001F93CF93DF93EC01162F862F75D1612F00
:100DB00070E0FB01ACD1660F771FFB01E85BFE4FD3
:100DC000E491EC87FB01E75BFE4FE491F0E03296A3
:100DD000FE87ED87DF91CF911F9108951F93CF93E9
:100DE000DF93EC01162F862F68D12F89812F90E099
:100DF00021FD02C0FC018BD11887880F991FFC01CF
:100E0000E85BFE4FE491E987FC01E75BFE4FE4916C
:100E1000F0E0FB87EA87DF91CF911F9108951F9340
:100E2000CF93DF93EC01162F1A8288EE93E0A0E0B7
:100E3000B0E08B839C83AD83BE831F828EEB94E0F6
:100E400099838883188A1F861A8A198A1C8A1B8AA2
:100E50001E8A1D8A8F898E7F20FB81F98F8B642FDC
:100E6000CE019EDF612FCE01DF91CF911F91B6CFD2
:100E70000F931F93CF93DF93EC011E8A1D8A1C8A68
:100E80001B8A1A8A198A90E080E0FC01E455FF4F22
:100E900005911591259134910417150726073707F9
:100EA00009F05CC0FC01E055FF4F25913491388B6F
:100EB0002F87FC01EE54FF4F259134913A8B298BFB
:100EC000FC01EC54FF4F259134913C8B2B8BFC01A2
:100ED000EA54FF4F859194919E8B8D8B8B899C89D1
:100EE000892BB1F18885853020F093EF980F9330EE
:100EF00060F590916800853028F08D50F0E0E0E0DA
:100F0000833010F4E8E6F0E09160908398859530A6
:100F100030F083EF890FF0E0E0E0833010F4EBE68F
:100F2000F0E02081943010F581E0092E01C0880F97
:100F30000A94EAF7822B953028F09D50F0E0E0E02B
:100F4000933010F4EBE6F0E080838D899E8920DEFB
:100F5000CE01DF91CF911F910F9121CE0C968C394C
:100F6000910509F092CF188A1F86B8CF83EF890FB9
:100F7000833048F481E0692F6950770B01C0880FF6
:100F80006A95EAF7D7CF80E8D5CFFC0120852530D8
:100F900020F083EF820F8330B8F430916B0024305F
:100FA000A0F481E090E0022E01C0880F0A94EAF7D5
:100FB00080958323253028F02D50F0E0E0E02330A9
:100FC00010F4EBE6F0E08083089583EF820F833026
:100FD00058F4822F8950990BAC0181E090E001C058
:100FE000880F4A95EAF7E4CF8FE7E3CF2EEB34E0A2
:100FF000FC0131832083C9CF1DBA109268001CBC4C
:1010000010BE1FBA10927A0010926E0010926F00FC
:1010100010927100109272001092C900ECEBF0E097
:10102000108214B817B81AB81DB810BA108215B8C3
:1010300018B81BB81EB811BA0895F894E1E6F0E0AC
:1010400020E82083108283E084BD85BDEEE6F0E0D9
:1010500080818160808381E08093800092E0909322
:10106000810080939000909391009093C00094E051
:101070009093C1008093C2008093C3001092C4007B
:1010800086E880937A0020937B0010927E00109275
:101090007D0043D178940895893170F4E8E4F1E05B
:1010A000880FE80FF11D2591E491F0E09FB7F894C7
:1010B0008181822B81839FBF0895893118F5A5EF27
:1010C000A80FAC3000F5EAE7F1E0AA0FEA0FF11D36
:1010D000A591B0E09591E8E4F1E0880FE80FF11DEB
:1010E0002591E491F0E04FB7F8943181822F8095FB
:1010F000232F28232183228182238283EC919E2324
:101100009C934FBF08959FEFB0E0A0E0E4CFE9319A
:1011100020F4EE0FE257F74F09940895289A0895A6
:10112000299A08952A9A08952B9A08952F9A38C0DB
:10113000589A26C0599A08955A9A08955B9A089524
:10114000469A34C0479A38C05E9A08955F9A3AC06A
:101150002C9A08952D9A18C02E9A1CC08F9A089523
:101160008E9A08958D9A08958C9A0895899A089573
:10117000889A08955C9A08955D9A0895769A0895DC
:10118000E4B5EF7DE4BD0895E0918000EF77E09352
:1011900080000895E0918000EF7DE0938000089545
:1011A000E0918000E77FE09380000895E091900057
:1011B000EF77E09390000895E091C000EF77E0931F
:1011C000C0000895E091C200E77FE093C200089557
:1011D000F89484B7877F84BF80916000806180939A
:1011E00060001092600080E29EE40197F1F781E0D8
:1011F0008093E00080E28093D80080E69AEE019729
:10120000F1F7FADE0C94003FFFCFF894F5DE80E6AC
:101210009AEE0197F1F70C940000FFCF8F938FB7F0
:101220008F938091CB058D5F8D37D0F48093CB0564
:101230008091CC058F5F8093CC05D8F08091CD054F
:101240008F4F8093CD05A8F08091CE058F4F80936E
:10125000CE0578F08091CF058F4F8093CF0509C0E0
:101260008D578093CB058091CC058E5F8093CC0504
:1012700028F78091D0058C5F8093D00558F080913D
:10128000D1058F4F8093D10528F08091D2058F4FE3
:101290008093D2058F918FBF8F911895CF92DF9257
:1012A000EF92FF926B017C0119D09B01C114D10414
:1012B000E104F10429F4FF90EF90DF90CF900895BE
:1012C0000DD0621B730B683E734080F381E0C81A37
:1012D000D108E108F10828513C4FE8CF0FB6F89447
:1012E00066B515B27091D0058091D1059091D20567
:1012F0000FBE10FE05C06F3F19F07C5F8F4F9F4FF0
:1013000011240024660F001C660F001C702908952C
:101310008091E80080FFFCCF08958091D80087FF7E
:1013200002C085FF7CC081E08093D70080EA809373
:10133000D80082E189BD09B400FEFDCF80E9809329
:10134000D8001092E0001092150610921406109228
:10135000130610920B0610920C0610920D061092B6
:101360000E0610920F06109210061092110610929F
:10137000120681E080930A069DE790930906109279
:101380000806109207061092060680930506109232
:10139000F9051092FA051092FB051092FC058FE0FA
:1013A0008093FD0590E29093FE0580E88093FF0511
:1013B0001092000622E02093010628E02093020606
:1013C00090930306809304061092F1051092F205A3
:1013D0001092F3051092F4051092F5051092F6059F
:1013E0001092F7051092F8051092EA051092E9059F
:1013F0001092EC051092EB051092EE051092ED059F
:101400001092F0051092EF051092E6051092E70594
:101410001092E8051092E1008CE08093E2000895BC
:101420001F920F920FB60F9211242F933F938F9319
:101430009F93EF93FF939091E1001092E10093FF4F
:101440000FC01092E90081E08093EB001092EC0055
:1014500082E38093ED0088E08093F00010921506FF
:1014600092FF41C0809115068823E9F1809113060F
:10147000882379F081508093130681110AC081E09E
:101480008093E9008091E80085FD59C08AE380934C
:10149000E80080910906882331F18091D4058F5F9F
:1014A0008093D4058370F9F483E08093E900809100
:1014B000E80085FF18C0809108068F5F80930806BA
:1014C0002091090682130FC010920806EBE0F6E0A7
:1014D00023E136E081918093F1002E173F07D1F789
:1014E0008AE38093E80090FF0CC080E18093E200E3
:1014F0001092150681E08093140680EA8093D8004C
:1015000019BC80911406882379F094FF0DC082E104
:1015100089BD09B400FEFDCF80E98093D8008DE03D
:101520008093E20010921406FF91EF919F918F91AA
:101530003F912F910F900FBE0F901F901895109212
:10154000F100A0CF1F920F920FB60F921124EF92CD
:10155000FF920F931F932F933F934F935F936F933C
:101560007F938F939F93AF93BF93CF93DF93EF932B
:10157000FF931092E9008091E80083FF21C0D09191
:10158000F100C091F1000091F1001091F100E090A4
:10159000F100F090F1002091F1003091F10082EF24
:1015A0008093E800C63009F05AC08EE0E2E9F1E02D
:1015B000459155910417150739F035968150C1F7BB
:1015C00081E28093EB002BC045915591E416F5061E
:1015D00011F03396F3CF4591559184912F3F31050A
:1015E00019F010F02FEF30E0821708F4282F3EEFAB
:1015F0008091E800982F9570D9F382FD10C0822F5A
:10160000213408F080E4982F911122C0922F981B6A
:10161000892F3093E800911119C02034B8F4FF915C
:10162000EF91DF91CF91BF91AF919F918F917F917A
:101630006F915F914F913F912F911F910F91FF906B
:10164000EF900F900FBE0F901F901895282FD0CFBE
:10165000FA0145914093F100AF019150D5CFC530CB
:1016600041F48EEF8093E80053DE00680093E300BE
:10167000D6CFC93001F5D1115EC000931506109286
:1016800013068EEF8093E80081E0ECEEF3E021E0BA
:101690008093E9002093EB0095919093EC00959155
:1016A0009093ED008F5F873099F78EE18093EA0089
:1016B0001092EA00B4CFC83041F4D038E1F528DE0A
:1016C000809115068093F10049C0C11111C020DE40
:1016D000D23849F4E092E900C091EB00C5FBCC2779
:1016E000C0F91092E900C093F1001092F10036C0E9
:1016F0008C2F8D7F8130F9F4D230E9F4011511057A
:1017000009F003C14E2D4F778FEF840F873008F01B
:10171000FCC08EEF8093E8004093E900C33009F4E9
:101720004FCF89E18093EB0081E090E001C0880F0A
:101730004A95EAF7BBCFE114F10409F0E9C0D13AC8
:10174000F1F4C13079F4E4DDEBE0F6E083E196E01A
:1017500021912093F1008E179F07D1F78EEF809390
:10176000E8005DCFC23021F4D3DD80910906AACF15
:10177000C33009F025CFCCDD80910A06A3CFD1324A
:1017800009F0B8C0C93061F48091E80082FFFCCF55
:101790008091F100809307068BEF8093E800DECF05
:1017A000CA3029F41093090610920806D7CFCB301F
:1017B00009F006CF00930A06D1CFC33009F000CF5D
:1017C000A7DD809105067ECFD13209F093C0CB30E2
:1017D00009F0F6CE00930506C1CF93E0E916F104B7
:1017E00091F4D13A09F086C0C13009F0E9CE90DD1C
:1017F000E9EFF5E085E096E021912093F1008E1766
:101800009F07D1F7ABCF84E0E816F10491F4D13A09
:1018100009F070C0C13009F0D3CE7ADDE1EFF5E018
:1018200089EF95E021912093F1008E179F07D1F762
:1018300095CF92E0E916F10409F05CC0C13011F5D2
:101840003EEFD13A09F0BCCE8091E800982F957018
:10185000D9F382FDE4CE822F213408F080E4982F62
:1018600091110CC0922F981B892F3093E800911191
:1018700003C0203408F4D3CE282FE6CF1092F10015
:101880009150EECFC930B1F5D13209F099CE0115A2
:10189000134009F095CE2430310509F091CE8091A6
:1018A000E80082FFFCCF3091F1002091F10090918F
:1018B000F1008091F1004BEF4093E8004EEF409330
:1018C000E800393A51F4253409F07ACE923C09F017
:1018D00077CE8B3609F074CE7BDC3B3809F070CEC6
:1018E000253C09F06DCE9D3109F06ACE803709F0B4
:1018F00067CE8BDCC93C09F063CED03409F060CEF2
:101900008EEF8093E80004DDF4CFE114F10491F34D
:1019100081E0E816F10409F060CFD13A09F054CF24
:10192000C13009F04ACFF4DC809106068093F100C3
:101930001092F1001092F1001092F100D6CE0895AD
:10194000CF92DF92EF92FF920F931F93CF93DF938B
:101950006C01EB017B01E40EF51E10E000E0CE15FA
:10196000DF0561F06991D601ED91FC910190F08164
:10197000E02DC6010995080F191FF1CFC801DF91AD
:10198000CF911F910F91FF90EF90DF90CF9008952E
:10199000CF93DF9300D0CDB7DEB72DE029832AE0C7
:1019A0002A83DC01ED91FC910280F381E02D42E07D
:1019B00050E0BE016F5F7F4F09950F900F90DF9150
:1019C000CF9108953ADB1ED840D8FECF80911506FE
:1019D000882371F08FB7F89492E09093E9009BE62A
:1019E0002091E80025FF03C09093E800F9CF8FBF56
:1019F0001092E5050895FC0180911506882369F190
:101A00009FB7F89481E08093E9002091E400275E7D
:101A10003091E80035FD0EC09FBF9091E400921711
:101A2000E1F0909115069923C1F09FB7F894809347
:101A3000E900EECF6093F1008091E80085FD09C0D8
:101A40008AE38093E800109213069FBF81E090E044
:101A5000089584E080931306F8CF81E0828390E0BC
:101A600080E008956032710540F46A30710569F0D4
:101A70006B30710561F48BE208956038710538F4BC
:101A800068527C4FFB018491089588E2089580E0BC
:101A9000089560930B06089560930D060895809154
:101AA0001506882309F441C08FB7F89493E090930A
:101AB000E9009091E4009E5C23E03091E80035FD60
:101AC0000EC08FBF80911506882379F18091E400C4
:101AD000981759F18FB7F8942093E900EECF9091C1
:101AE0000B069093F10090910C069093F100909169
:101AF0000D069093F10090910E069093F100909155
:101B00000F069093F100909110069093F100909140
:101B100011069093F100909112069093F1009AE3D0
:101B20009093E800109208068FBF0895CF93DF933B
:101B3000EC0182E066FF80E080930B0610920C06B9
:101B40006F7360930D0610920E0610920F0610929E
:101B500010061092110610921206CE01A0DF10920C
:101B60000B0610920D06CE01DF91CF9198CF611137
:101B7000DDCF0895CF93DF93EC0167FD0CC01B828E
:101B800070E0CE016FDF682FCE01F1DF81E090E0E1
:101B9000DF91CF910895603CD0F46F738B818130D9
:101BA00039F41B828C819D819C01262BB901E9CFE0
:101BB000823061F730E4639FB00111248C819D81F4
:101BC000682B792B7D836C8381E08B83DFCF603E34
:101BD00038F480E4689FB0011124607C7770F2CF04
:101BE0008FEF603F90F76295607F1C826D8382E08B
:101BF000ECCF0F93809115068823B9F1603809F472
:101C000061E8403809F441E8203809F421E8003857
:101C100009F401E88FB7F89494E09093E90090916B
:101C2000E4009E5C34E05091E80055FD0EC08FBF8B
:101C3000809115068823C9F08091E4009817A9F0D7
:101C40008FB7F8943093E900EECF90910606909309
:101C5000F1006093F1004093F1002093F1000093B4
:101C6000F1009AE39093E8008FBF0F9108950F93CE
:101C7000CF93DF93EC016093060600E020E040E0A4
:101C800060E0B7DF1092060620E040E060E0CE01A1
:101C9000B0DFDF91CF910F9108950F932091060649
:101CA0006770622B60930606621729F000E020E05F
:101CB00040E060E09EDF0F9108950F9320910606AB
:101CC00067706095622360930606621729F000E052
:101CD00020E040E060E08DDF0F9108959FB7F89419
:101CE00080911506811102C09FBF089582E0809304
:101CF000E9002BE68091E80085FD03C09FBF80E0EE
:101D000008958091F100811103C02093E800F2CF83
:101D10002091E80025FDE8CF2BE62093E800E4CFF2
:101D20002091E505211105C0D9DF882329F0809392
:101D3000E50581E090E0089590E080E008959C0141
:101D40009091E505992329F01092E505892F90E0FF
:101D50000895C901C3DF8111FACF8FEF9FEF089576
:101D60009C019091E505892F911106C0C901B6DF4C
:101D7000882321F08093E50590E008958FEF9FEF91
:101D80000895EDEDF5E0128288EE93E0A0E0B0E07A
:101D900083839483A583B68317828CED94E091832B
:101DA0008083E7EDF5E0128213821482158280EDC4
:101DB00094E0918380831092D505089597FB072EB8
:101DC00016F4009406D077FD08D04FD007FC05D05C
:101DD0003EF4909581959F4F0895709561957F4F42
:101DE0000895A1E21A2EAA1BBB1BFD010DC0AA1F5C
:101DF000BB1FEE1FFF1FA217B307E407F50720F074
:101E0000A21BB30BE40BF50B661F771F881F991FEE
:101E10001A9469F760957095809590959B01AC0137
:101E2000BD01CF010895052E97FB16F400940FD045
:101E300057FD05D0D6DF07FC02D046F408C0509508
:101E40004095309521953F4F4F4F5F4F08959095A6
:101E50008095709561957F4F8F4F9F4F0895EE0F3E
:101E6000FF1F0590F491E02D0994AA1BBB1B51E1C3
:101E700007C0AA1FBB1FA617B70710F0A61BB70BFA
:101E8000881F991F5A95A9F780959095BC01CD019F
:101E900008951F93FC0199278827BC01E8941191AC
:101EA0001032E9F3193010F01E30C8F31B3249F03C
:101EB0001D3241F4689405C054D0610F711D811D1D
:101EC000911D119110531A30B8F33EF490958095FE
:101ED000709561957F4F8F4F9F4F1F9108954AEEE8
:101EE00054E018C0FB01DC018D91019080190110B4
:101EF000D9F3990B0895FB01DC014150504048F0A3
:101F000001900D920020C9F701C01D924150504030
:101F1000E0F70895FA01A191B081009719F41097A4
:101F2000E1F0CD01DC01CD010D90002011F4C001E4
:101F300013C0FB012191222319F02015D9F7F3CF0B
:101F4000FB012191201519F41E92119606C022233F
:101F5000C1F70D900020A1F7D001FA01A193B08341
:101F60000895592F482F372F262F660F771F881F68
:101F7000991F660F771F881F991F620F731F841F99
:101F8000951F660F771F881F991F089512E0CEE2F4
:101F9000D2E003C0FE0163DF2196CF32D107D1F733
:041FA000F894FFCFE3
:101FA400330428F0390429F03D042AF047042BF0C7
:101FB400970452F0AA0451F04B044FF0510450F02E
:101FC40056043AF059043BF05C043CF05F043DF0E5
:101FD40062043EF065043FF0680440F06B0441F095
:101FE4006E0442F0710443F0750444F0790445F042
:101FF4007D0453F0860449F08D044AF092044BF0BA
:102004009A044CF0A1044DF0A5044EF0AF0401E095
:10201400B40402E0590304E0436F6D6D616E6473B0
:102024003A00202020206D6F757365206D6F7665F2
:10203400203C583E203C593E3A204D6F7665207432
:102044006865206D6F75736520746F206162736FAE
:102054006C75746520706F736974696F6E002020ED
:1020640020206D6F75736520636C69636B2020207D
:10207400202020203A20436C69636B206F6E20740B
:102084006865206D6F75736500202020206D6F7565
:1020940073652064626C636C69636B202020203A52
:1020A40020446F75626C6520636C69636B206F6E8E
:1020B40020746865206D6F75736500202020206D85
:1020C4006F75736520707265737320202020202043
:1020D400203A205072657373206D6F7573652062AA
:1020E4007574746F6E00202020206D6F75736520E9
:1020F40072656C6561736520202020203A2052654A
:102104006C65617365206D6F757365206275747499
:102114006F6E00202020206B6579203C4B4559537D
:102124003E20202020202020203A2053656E642069
:102134007370656369666963206B657973206F6E7C
:1021440020746865206B6579626F61726400202079
:102154002020737472203C535452494E473E202031
:10216400202020203A2053656E6420737472696EB7
:1021740067206F766572206B6579626F61726400A7
:10218400202020206563686F20202020202020202C
:102194002020202020203A20546F6F676C65206532
:1021A40063686F206F6E2055415254206F6E2F6FFD
:1021B4006666004B4559533A20537061636520733A
:1021C400657061726174656420284D6178203829D6
:1021D4002C2069742063616E2062653A00202020FF
:1021E400204D4F444946494552533A204354524C9A
:1021F4002C2053484946542C20414C540020202084
:10220400204B455953533A2055502C20444F574E98
:102214002C204C4546542C2052494748542C2045E8
:102224004E5445522C204553432C202E2E2E00452F
:1022340052523D31006B6579004552523D32004F98
:102244004B00737472006D6F76650064626C636C2E
:1022540069636B0070726573730072656C6561739A
:1022640065004552523D340076657273696F6E00A5
:102274004F4B3D312E302E300068656C7000656325
:10228400686F004552523D33002A2A2A2A2A2A2AF4
:102294002A2A2A2A2A2A2A2A2A2A2A2A2A2A2A2A9A
:1022A4002A2A2A2A2A2A2A2A2A2A2A2A2A002020C8
:1022B400202020204B6579626F6172642F6D6F75E9
:1022C4007365206F7665722055415254202020207A
:1022D400202000454E54455200455343004241439B
:1022E4004B535041434500544142005249474854DE
:1022F400004C454654004631004632004633004601
:102304003400463500463600463700463800463924
:10231400004631300046313100463132004E554DD1
:102324005F4C4F434B00494E5345525400484F4D68
:102334004500504147455F55500044454C45544580
:1023440000454E4400504147455F444F574E0043BB
:1023540054524C00534849465400000000004D06B6
:10236400A00C5705AD0595055A057B050000000036
:10237400BA0DA00C57059F0C00000000FB0CA00C2C
:0A2384005705E60C900E9F0EB00EF8
:00000001FF
