:100000002EC2000054C2000052C2000050C20000C4
:100010004EC200004CC200004AC2000048C20000AC
:1000200046C200007DC600000C94F9090C948B0AAE
:100030003EC200003CC200003AC2000038C20000CC
:1000400036C2000034C2000032C2000030C20000DC
:100050002EC200002CC200002AC200000C94F70837
:1000600026C2000024C2000022C2000020C20000FC
:100070001EC200001CC200001AC2000018C200000C
:1000800016C2000014C2000012C2000010C200001C
:100090000EC200000CC200000AC2000008C200002C
:1000A00006C2000004C2000002C2000000C201003B
:1000B0000100110011000C0000E100000A00250001
:1000C0002500210000960000190039003900360093
:1000D000127A00001F0046004600440080700000B5
:1000E00022004D004D004A00004B00003600750014
:1000F00075007200403800004A009C009C00990086
:10010000802500007200EC00EC00E900C012000045
:10011000E900DA01DA01D70160090000D701B6036E
:10012000B603B303B0040000B3036E076E076B079A
:10013000580200006E07DC0EDC0ED80E2C01000009
:10014000DC0EC11DC11DBE1D012302230423082393
:1001500080230129022904290829402680264029D4
:100160008029102320234023802F402F202F102F61
:10017000022F012F10292029402C7DFD7DFB7DF7CA
:100180007DEF7DDF7E7F7EBF7EDF7EEF7EFD7EFEAC
:100190007DFE00010000DA03120002000038028D2B
:1001A000002200009B033F002100004A02090022B8
:1001B00001003B0338002101006302090022020014
:1001C000C50221002102007C020900220300E60290
:1001D00055002103009C020900220400730328003B
:1001E000210400B5020900030000340204010309E0
:1001F00004F4013E3E035400650065006E00730088
:10020000790020004B006500790062006F006100FA
:10021000720064002F004D006F00750073006500D0
:100220002F004A006F0079007300740069006300BA
:100230006B0000000403090409028D00050100C0E1
:10024000320904000001030101000921110100012C
:10025000223F000705830308000109040100010390
:100260000102000921110100012238000705840361
:100270000800010904020002030000000921110125
:100280000001222100070581034000010705020348
:1002900020000209040300010300000009211101EC
:1002A0000001225500070585030C00020904040023
:1002B00001030000000921110100012228000705A7
:1002C000860308000406C9FF0904A15C750815002F
:1002D00026FF0095400975810295200976910295C7
:1002E000040976B102C005010904A1011500250128
:1002F000750195200509190129208102150025079E
:100300003500463B017504950165140501093981E5
:100310004205010901A100150026FF03750A950495
:1003200009300931093209358102C0150026FF0361
:10033000750A9502093609368102C005010902A134
:100340000105091901290815002501950875018184
:100350000205010930093109381581257F75089595
:10036000038106050C0A38021581257F7508950161
:100370008106C0050C0901A101750A950419002A1E
:100380009C021500269C0281000501750895031941
:100390000029B7150026B7008100C005010906A194
:1003A0000175019508050719E029E7150025018168
:1003B0000295017508810395057501050819012944
:1003C00005910295017503910395067508150025A1
:1003D0007F05071900297F8100C01201000200007B
:1003E0000040C0168204710200010001C136C0261F
:1003F000C106C106C116C1062C5E74606162643418
:100400006667656E362D3738271E1F20212223246C
:1004100025267333762E77785F4445464748494A08
:100420004B4C4D4E4F505152535455565758595AA4
:100430005B5C5D2F3130636D350405060708090AE2
:100440000B0C0D0E0F101112131415161718191A84
:100450001B1C1D6F7170752A0905AA0E0F0511244A
:100460001FBECFEFDAE0DEBFCDBF13E0A0E0B1E00A
:10047000E6E7FFE102C005900D92A03CB107D9F775
:1004800024E0A0ECB3E001C01D92AB3BB207E1F762
:1004900012E0CEE2D2E004C02197FE010E94180FC4
:1004A000CC32D107C9F70E94CB0C0C94AF0FA8CD6A
:1004B000FB0101900020E9F73197AF01461B570B74
:1004C000DC01ED91FC910280F381E02D09940F9302
:1004D0001F93CF93DF93EC01EBDF8C01CE010E94E1
:1004E000B10C800F911FDF91CF911F910F91089553
:1004F00068E771E084E494E0EADF62E871E084E4B4
:1005000094E0E5DF69E971E084E494E0E0DF69EA22
:1005100071E084E494E0DBDF6CEB71E084E494E070
:10052000D6DF6CEC71E084E494E0D1DF6EED71E035
:1005300084E494E0CCDF6DEE71E084E494E0C7DF06
:1005400067E073E084E494E0C2DF6EEF71E084E47E
:1005500094E0BDDF68E272E084E494E0B8DF68E430
:1005600072E084E494E0B3CF8F929F92AF92BF92F7
:10057000CF92DF92EF92FF920F931F93CF93DF936F
:100580005B018C01F12CE12CD12CC12CEA14FB0471
:100590000CF058C0F801C081D1818CE6882E81E032
:1005A000982EF40160817181CE010E945B0F892B2E
:1005B00029F4F40182819381C82AD92AF4E08F0EAC
:1005C000911C88E7881681E0980659F7C0E0D1E0D1
:1005D00068817981F801808191810E945B0F892B6C
:1005E00031F5B6018CEA94E00E94320D8CEA94E079
:1005F0000E94380D6A818CEA94E00E94350D8CEAE5
:1006000094E00E94380D6AE070E080E090E02FD620
:1006100070E060E08CEA94E00E94320D60E08CEAC9
:1006200094E00E94350D8CEA94E00E94380D2496E7
:10063000F1E0CC36DF0761F68FEFE81AF80A0E5FBB
:100640001F4FA4CFDF91CF911F910F91FF90EF909B
:10065000DF90CF90BF90AF909F908F9008954F9272
:100660005F926F927F928F929F92AF92BF92CF9242
:10067000DF92EF92FF920F93CF93DF93CDB7DEB768
:1006800028970FB6F894DEBF0FBECDBF4B015C01BB
:1006900029013A0180E490E09A83898300E020E018
:1006A00040E860E88BEA94E00E94E20DA981BA81FB
:1006B0001197BA83A983AB2B89F79FE7C92ED12C59
:1006C000E12CF12CC501B401A70196010E94FC0E9A
:1006D00029833A834B835C83C301B201A70196014E
:1006E0000E94FC0E2D833E834F835887C12CD12C52
:1006F00076018D819E81AF81B885C816D906EA063C
:10070000FB0674F400E020E04FE760E08BEA94E041
:100710000E94E20D9FEFC91AD90AE90AF90AE9CF46
:10072000C12CD12C760189819A81AB81BC81C816FC
:10073000D906EA06FB0674F400E020E040E06FE72B
:100740008BEA94E00E94E20D9FEFC91AD90AE90AE8
:10075000F90AE9CF8FE7C82ED12CE12CF12CC30187
:10076000B201A70196010E94FC0E6983C501B40184
:10077000A70196010E94FC0E00E020E049818BEA6F
:1007800094E00E94E20D28960FB6F894DEBF0FBEEB
:10079000CDBFDF91CF910F91FF90EF90DF90CF9081
:1007A000BF90AF909F908F907F906F905F904F9091
:1007B00008950F931F93CF93DF938B0166E073E04F
:1007C0000E94580FE8018993999301E010E066E0D8
:1007D00073E090E080E00E94580F89939993892BF1
:1007E00031F00A30110519F00F5F1F4FF0CFC8012B
:1007F000DF91CF911F910F910895CF92DF92EF92E9
:10080000FF920F931F93CF93DF93CDB7DEB7C459F9
:10081000D1090FB6F894DEBF0FBECDBF8C0140E802
:1008200050E0BC01CE0101960E94640FBE016F57DB
:100830007F4FC801BEDF8C016AE772E0892B91F01F
:10084000CF57DF4FE880F980C158D04060E872E0B0
:10085000C7010E945B0F892BA9F40230110534F403
:1008600064E872E084E494E032DEA6C0B80161502E
:10087000710981E890E08C0F9D1F029675DE6AE891
:1008800072E0F0CF6DE872E0C7010E945B0F892B28
:1008900051F40230110524F3BE016B5F7F4F8CEAE7
:1008A00094E006DEECCF61E972E0C7010E945B0FC5
:1008B000892B09F06FC00230110594F2CD57DF4F3C
:1008C000E880F980C358D04067E972E0C7010E9410
:1008D0005B0F892BD1F4043011050CF4C1CFC9573B
:1008E000DF4F88819981C758D0400E94320F6B0139
:1008F0007C01CB57DF4F88819981C558D0400E9439
:10090000320FA7019601ABDEBACF63EA71E0C701EF
:100910000E945B0F892B31F461E08BEA94E00E9426
:10092000200EADCF63EB71E0C7010E945B0F892BF6
:1009300059F461E08BEA94E00E94200E64E670E0D6
:1009400080E090E094D4E8CF66EC71E0C7010E94AB
:100950005B0F892B31F461E08BEA94E00E94360E44
:100960008ECF66ED71E0C7010E945B0F892B31F4D9
:1009700061E08BEA94E00E94460E81CF6CE972E060
:1009800084E494E0A4DDCD57DF4F68817981C358BA
:10099000D04068CF62EA72E0C7010E945B0F6AEA4A
:1009A00072E0892B09F45ECF63EB72E0C7010E940D
:1009B0005B0F892B89F49CDDCC56DF4F0FB6F89482
:1009C000DEBF0FBECDBFDF91CF911F910F91FF9082
:1009D000EF90DF90CF90089568EB72E043CF2298BC
:1009E0002A98239A40E855E260E070E084E494E0BD
:1009F00028D26EEB72E084E494E069DD63EE72E08D
:100A000084E494E064DD6EEB72E084E494E05FDD06
:100A10006FCD20E043E062E084E494E0E9C184E447
:100A200094E0CDC284E494E069D0181619063CF530
:100A300084E494E028D0E091C203F091C303EC5326
:100A4000FC4F8083682F84E494E010D18091C2032E
:100A50009091C303FC01EC53FC4F20812D3011F029
:100A60002A3041F410821092C3031092C20384EC26
:100A700093E0C3CE01969093C3038093C20308957D
:100A800090E080E0089520919E0430919F04281703
:100A90003907B9F490915C0480915D04981789F04E
:100AA000E0915C04F0E0E25AFB4F808120915C040D
:100AB00030E02F5F3F4F2F73332720935C0490E08B
:100AC00008958FEF9FEF089520919E0430919F0429
:100AD0002817390781F490915C0480915D04981780
:100AE00051F0E0915C04F0E0E25AFB4F8081082E67
:100AF000000C990B08958FEF9FEF089520919E04AD
:100B000030919F042817390771F480915D0420917A
:100B10005C0490E0805C9F4F821B910960E470E070
:100B20000C94C70E089590E080E0089520919E04F3
:100B300030919F042817390739F48FB7F894109231
:100B40005D0410925C048FBF0895DC011D96ED9149
:100B5000FC911E9790811C968C91809589238083AF
:100B6000089520E001972FEF8F3F9207D9F708955E
:100B700020919E0430919F042817390789F0FC01C9
:100B800027892E7F278B2FB7F89410925D0410923F
:100B90005C0490939F0480939E042FBF81E008958E
:100BA00080E00895EF92FF920F931F93CF93DF930E
:100BB000EC01EA85FB8599858F8981FF0AC08081D8
:100BC000892351F4DF91CF911F910F91FF90EF9006
:100BD000089580818923B1F78F859889C2DF88E0E5
:100BE000E82EF12C10E001E089899A89BADFEA85C4
:100BF000FB8580819985892331F1102B000F81E0DD
:100C0000E81AF10889F78B899C89ABDF8F8981FD10
:100C1000109580915D0420915C0490E001968F73A3
:100C200099272817190699F0E0915D04F0E0E25A3F
:100C3000FB4F108380915D0490E001968F7399279C
:100C400080935D04BFCF802F80951823D7CF8F89E5
:100C500081608F8BB7CFFC01611101C076CFA58574
:100C6000B6859C918485892B8C930895DF92EF92B1
:100C7000FF920F931F93CF93DF93EC018D899E8991
:100C8000892B61F481E08A8390E080E0DF91CF914D
:100C90001F910F91FF90EF90DF900895162FDFB610
:100CA000F8946F8966956170CE01D5DF8D899E8934
:100CB000059657DF8F8998E0E92EF12C01E081FF3E
:100CC0001AC0812F802399F0CE013FDF8D899E8944
:100CD00048DF000F81E0E81AF10899F7CE0135DF0F
:100CE000DFBE8D899E893DDF81E090E0CFCF61E05E
:100CF000CE01B1DFEBCF812F802379F061E0CE010F
:100D0000AADF8D899E892DDF000F81E0E81AF108A6
:100D100091F761E0CE019FDFE3CFCE0116DFF1CF87
:100D20001F920F920FB60F9211242F933F934F9360
:100D30005F936F937F938F939F93AF93BF93EF9343
:100D4000FF9380919E0490919F04009709F02ADF01
:100D5000FF91EF91BF91AF919F918F917F916F9193
:100D60005F914F913F912F910F900FBE0F901F9069
:100D700018951F93CF93DF93EC01162F862F75D113
:100D8000612F70E0FB01ACD1660F771FFB01E85BC0
:100D9000FE4FE491EC87FB01E75BFE4FE491F0E04E
:100DA0003296FE87ED87DF91CF911F9108951F93B3
:100DB000CF93DF93EC01162F862F68D12F89812FD7
:100DC00090E021FD02C0FC018BD11887880F991F8C
:100DD000FC01E85BFE4FE491E987FC01E75BFE4F15
:100DE000E491F0E0FB87EA87DF91CF911F910895AE
:100DF0001F93CF93DF93EC01162F1A8288EE93E0B6
:100E0000A0E0B0E08B839C83AD83BE831F8283E927
:100E100093E099838883188A1F861A8A198A1C8A04
:100E20001B8A1E8A1D8A8F898E7F20FB81F98F8BFA
:100E3000642FCE019EDF612FCE01DF91CF911F91F4
:100E4000B6CF0F931F93CF93DF93EC011E8A1D8AB9
:100E50001C8A1B8A1A8A198A90E080E0FC01E455FA
:100E6000FF4F059115912591349104171507260719
:100E7000370709F05CC0FC01E055FF4F2591349124
:100E8000388B2F87FC01EE54FF4F259134913A8B1C
:100E9000298BFC01EC54FF4F259134913C8B2B8B1B
:100EA000FC01EA54FF4F859194919E8B8D8B8B8929
:100EB0009C89892BB1F18885853020F093EF980FBC
:100EC000933060F590916800853028F08D50F0E007
:100ED000E0E0833010F4E8E6F0E0916090839885DC
:100EE000953030F083EF890FF0E0E0E0833010F4CC
:100EF000EBE6F0E02081943010F581E0092E01C08E
:100F0000880F0A94EAF7822B953028F09D50F0E084
:100F1000E0E0933010F4EBE6F0E080838D899E8969
:100F200020DECE01DF91CF911F910F9121CE0C9643
:100F30008C39910509F092CF188A1F86B8CF83EFBC
:100F4000890F833048F481E0692F6950770B01C025
:100F5000880F6A95EAF7D7CF80E8D5CFFC012085C6
:100F6000253020F083EF820F8330B8F430916B008E
:100F70002430A0F481E090E0022E01C0880F0A9492
:100F8000EAF780958323253028F02D50F0E0E0E04B
:100F9000233010F4EBE6F0E08083089583EF820FB6
:100FA000833058F4822F8950990BAC0181E090E096
:100FB00001C0880F4A95EAF7E4CF8FE7E3CF23E932
:100FC00033E0FC0131832083C9CF1DBA1092680041
:100FD0001CBC10BE1FBA10927A0010926E001092C4
:100FE0006F0010927100109272001092C900ECEB29
:100FF000F0E0108214B817B81AB81DB810BA1082F1
:1010000015B818B81BB81EB811BA0895F894E1E6DF
:10101000F0E020E82083108283E084BD85BDEEE609
:10102000F0E080818160808381E08093800092E0A5
:101030009093810080939000909391009093C000D2
:1010400094E09093C1008093C2008093C3001092FB
:10105000C40086E880937A0020937B0010927E0083
:1010600010927D0043D178940895893170F4E8E4BA
:10107000F1E0880FE80FF11D2591E491F0E09FB7B2
:10108000F8948181822B81839FBF0895893118F55F
:10109000A5EFA80FAC3000F5EAE7F1E0AA0FEA0FE0
:1010A000F11DA591B0E09591E8E4F1E0880FE80F1B
:1010B000F11D2591E491F0E04FB7F8943181822F32
:1010C0008095232F28232183228182238283EC9100
:1010D0009E239C934FBF08959FEFB0E0A0E0E4CF24
:1010E000E93120F4EE0FE958F74F09940895289A52
:1010F0000895299A08952A9A08952B9A08952F9A67
:1011000038C0589A26C0599A08955A9A08955B9AF9
:101110000895469A34C0479A38C05E9A08955F9AF7
:101120003AC02C9A08952D9A18C02E9A1CC08F9AF6
:1011300008958E9A08958D9A08958C9A0895899AA3
:101140000895889A08955C9A08955D9A0895769A0C
:101150000895E4B5EF7DE4BD0895E0918000EF7758
:10116000E09380000895E0918000EF7DE09380009F
:101170000895E0918000E77FE09380000895E0917A
:101180009000EF77E09390000895E091C000EF7732
:10119000E093C0000895E091C200E77FE093C200B1
:1011A0000895F89484B7877F84BF80916000806140
:1011B000809360001092600080E29EE40197F1F756
:1011C00081E08093E00080E28093D80080E69AEE90
:1011D0000197F1F7FADE0C94003FFFCFF894F5DEAB
:1011E00080E69AEE0197F1F70C940000FFCF8F9301
:1011F0008FB78F938091A0048D5F8D37D0F480934B
:10120000A0048091A1048F5F8093A104D8F0809105
:10121000A2048F4F8093A204A8F08091A3048F4F63
:101220008093A30478F08091A4048F4F8093A4044A
:1012300009C08D578093A0048091A1048E5F809394
:10124000A10428F78091A5048C5F8093A50458F031
:101250008091A6048F4F8093A60428F08091A70464
:101260008F4F8093A7048F918FBF8F911895CF9246
:10127000DF92EF92FF926B017C0119D09B01C114A8
:10128000D104E104F10429F4FF90EF90DF90CF90B6
:1012900008950DD0621B730B683E734080F381E0AC
:1012A000C81AD108E108F10828513C4FE8CF0FB621
:1012B000F89466B515B27091A5048091A60490913A
:1012C000A7040FBE10FE05C06F3F19F07C5F8F4F63
:1012D0009F4F11240024660F001C660F001C70290C
:1012E00008958091E80080FFFCCF08958091D80098
:1012F00087FF02C085FF7CC081E08093D70080EA31
:101300008093D80082E189BD09B400FEFDCF80E959
:101310008093D8001092E0001092EA041092E90441
:101320001092E8041092E0041092E1041092E2049A
:101330001092E3041092E4041092E5041092E60483
:101340001092E70481E08093DF049DE79093DE0430
:101350001092DD041092DC041092DB048093DA0416
:101360001092CE041092CF041092D0041092D104A7
:101370008FE08093D20490E29093D30480E880932E
:10138000D4041092D50422E02093D60428E02093C0
:10139000D7049093D8048093D9041092C604109275
:1013A000C7041092C8041092C9041092CA04109283
:1013B000CB041092CC041092CD041092BF04109272
:1013C000BE041092C1041092C0041092C304109283
:1013D000C2041092C5041092C4041092BB0410926F
:1013E000BC041092BD041092E1008CE08093E200F6
:1013F00008951F920F920FB60F9211242F933F93CF
:101400008F939F93EF93FF939091E1001092E100EF
:1014100093FF0FC01092E90081E08093EB001092DF
:10142000EC0082E38093ED0088E08093F00010925E
:10143000EA0492FF41C08091EA048823E9F1809197
:10144000E804882379F081508093E80481110AC070
:1014500081E08093E9008091E80085FD59C08AE32E
:101460008093E8008091DE04882331F18091A90403
:101470008F5F8093A9048370F9F483E08093E9007F
:101480008091E80085FF18C08091DD048F5F809314
:10149000DD042091DE0482130FC01092DD04E0EE23
:1014A000F4E028EE34E081918093F1002E173F079D
:1014B000D1F78AE38093E80090FF0CC080E180932D
:1014C000E2001092EA0481E08093E90480EA8093CC
:1014D000D80019BC8091E904882379F094FF0DC0ED
:1014E00082E189BD09B400FEFDCF80E98093D80078
:1014F0008DE08093E2001092E904FF91EF919F91BB
:101500008F913F912F910F900FBE0F901F901895C4
:101510001092F100A0CF1F920F920FB60F921124DC
:10152000EF92FF920F931F932F933F934F935F93ED
:101530006F937F938F939F93AF93BF93CF93DF93DB
:10154000EF93FF931092E9008091E80083FF21C0A0
:10155000D091F100C091F1000091F1001091F100E3
:10156000E090F100F090F1002091F1003091F10055
:1015700082EF8093E800C63009F05AC08EE0E2E9BD
:10158000F1E0459155910417150739F035968150D2
:10159000C1F781E28093EB002BC045915591E41691
:1015A000F50611F03396F3CF4591559184912F3F75
:1015B000310519F010F02FEF30E0821708F4282FD2
:1015C0003EEF8091E800982F9570D9F382FD10C00E
:1015D000822F213408F080E4982F911122C0922F9D
:1015E000981B892F3093E800911119C02034B8F46A
:1015F000FF91EF91DF91CF91BF91AF919F918F912B
:101600007F916F915F914F913F912F911F910F911A
:10161000FF90EF900F900FBE0F901F901895282FFE
:10162000D0CFFA0145914093F100AF019150D5CF51
:10163000C53041F48EEF8093E80053DE00680093DC
:10164000E300D6CFC93001F5D1115EC00093EA04A2
:101650001092E8048EEF8093E80081E0ECEEF3E076
:1016600021E08093E9002093EB0095919093EC00AA
:1016700095919093ED008F5F873099F78EE180937D
:10168000EA001092EA00B4CFC83041F4D038E1F556
:1016900028DE8091EA048093F10049C0C11111C095
:1016A00020DED23849F4E092E900C091EB00C5FB9E
:1016B000CC27C0F91092E900C093F1001092F1001C
:1016C00036C08C2F8D7F8130F9F4D230E9F40115CA
:1016D000110509F003C14E2D4F778FEF840F87302E
:1016E00008F0FCC08EEF8093E8004093E900C3301F
:1016F00009F44FCF89E18093EB0081E090E001C0D5
:10170000880F4A95EAF7BBCFE114F10409F0E9C06C
:10171000D13AF1F4C13079F4E4DDE0EEF4E088EEA2
:1017200094E021912093F1008E179F07D1F78EEF5F
:101730008093E8005DCFC23021F4D3DD8091DE04D8
:10174000AACFC33009F025CFCCDD8091DF04A3CF31
:10175000D13209F0B8C0C93061F48091E80082FF4D
:10176000FCCF8091F1008093DC048BEF8093E80044
:10177000DECFCA3029F41093DE041092DD04D7CFF7
:10178000CB3009F006CF0093DF04D1CFC33009F08E
:1017900000CFA7DD8091DA047ECFD13209F093C06B
:1017A000CB3009F0F6CE0093DA04C1CF93E0E9160E
:1017B000F10491F4D13A09F086C0C13009F0E9CEC4
:1017C00090DDEEECF4E08AED94E021912093F100BD
:1017D0008E179F07D1F7ABCF84E0E816F10491F4A0
:1017E000D13A09F070C0C13009F0D3CE7ADDE6EC11
:1017F000F4E08EEC94E021912093F1008E179F0786
:10180000D1F795CF92E0E916F10409F05CC0C13040
:1018100011F53EEFD13A09F0BCCE8091E800982F47
:101820009570D9F382FDE4CE822F213408F080E454
:10183000982F91110CC0922F981B892F3093E8009C
:10184000911103C0203408F4D3CE282FE6CF109294
:10185000F1009150EECFC930B1F5D13209F099CEF7
:101860000115134009F095CE2430310509F091CED1
:101870008091E80082FFFCCF3091F1002091F100CF
:101880009091F1008091F1004BEF4093E8004EEF12
:101890004093E800393A51F4253409F07ACE923C6D
:1018A00009F077CE8B3609F074CE7BDC3B3809F03B
:1018B00070CE253C09F06DCE9D3109F06ACE80379F
:1018C00009F067CE8BDCC93C09F063CED03409F057
:1018D00060CE8EEF8093E80004DDF4CFE114F104D4
:1018E00091F381E0E816F10409F060CFD13A09F0F4
:1018F00054CFC13009F04ACFF4DC8091DB048093EF
:10190000F1001092F1001092F1001092F100D6CE89
:101910000895CF92DF92EF92FF920F931F93CF9390
:10192000DF936C01EB017B01E40EF51E10E000E09B
:10193000CE15DF0561F06991D601ED91FC91019022
:10194000F081E02DC6010995080F191FF1CFC801DC
:10195000DF91CF911F910F91FF90EF90DF90CF908B
:101960000895CF93DF9300D0CDB7DEB72DE0298364
:101970002AE02A83DC01ED91FC910280F381E02DC5
:1019800042E050E0BE016F5F7F4F09950F900F90CE
:10199000DF91CF9108953ADB22D844D8FECF8091D1
:1019A000EA04882371F08FB7F89492E09093E900ED
:1019B0009BE62091E80025FF03C09093E800F9CF53
:1019C0008FBF1092BA040895FC018091EA04882325
:1019D00069F19FB7F89481E08093E9002091E400D9
:1019E000275E3091E80035FD0EC09FBF9091E40066
:1019F0009217E1F09091EA049923C1F09FB7F8940F
:101A00008093E900EECF6093F1008091E80085FDBE
:101A100009C08AE38093E8001092E8049FBF81E048
:101A200090E0089584E08093E804F8CF81E0828319
:101A300090E080E008956032710540F46A307105ED
:101A400069F06B30710561F48BE2089560387105BF
:101A500038F468527C4FFB018491089588E2089520
:101A600080E008956093E00408956093E20408958F
:101A70008091EA04882309F441C08FB7F89493E079
:101A80009093E9009091E4009E5C23E03091E8009F
:101A900035FD0EC08FBF8091EA04882379F18091D3
:101AA000E400981759F18FB7F8942093E900EECF2E
:101AB0009091E0049093F1009091E1049093F100F3
:101AC0009091E2049093F1009091E3049093F100DF
:101AD0009091E4049093F1009091E5049093F100CB
:101AE0009091E6049093F1009091E7049093F100B7
:101AF0009AE39093E8001092DD048FBF0895CF938E
:101B0000DF93EC0182E066FF80E08093E0041092B6
:101B1000E1046F736093E2041092E3041092E40412
:101B20001092E5041092E6041092E704CE01A0DFC3
:101B30001092E0041092E204CE01DF91CF9198CF91
:101B40006111DDCF0895CF93DF93EC0167FD0CC0E9
:101B50001B8270E0CE016FDF682FCE01F1DF81E0E4
:101B600090E0DF91CF910895603CD0F46F738B814A
:101B7000813039F41B828C819D819C01262BB90117
:101B8000E9CF823061F730E4639FB00111248C818A
:101B90009D81682B792B7D836C8381E08B83DFCFE4
:101BA000603E38F480E4689FB0011124607C777057
:101BB000F2CF8FEF603F90F76295607F1C826D835C
:101BC00082E0ECCF0F938091EA048823B9F160386A
:101BD00009F461E8403809F441E8203809F421E8C3
:101BE000003809F401E88FB7F89494E09093E90085
:101BF0009091E4009E5C34E05091E80055FD0EC0E9
:101C00008FBF8091EA048823C9F08091E40098177F
:101C1000A9F08FB7F8943093E900EECF9091DB04F0
:101C20009093F1006093F1004093F1002093F10054
:101C30000093F1009AE39093E8008FBF0F9108950D
:101C40000F93CF93DF93EC016093DB0400E020E07F
:101C500040E060E0B7DF1092DB0420E040E060E0AD
:101C6000CE01B0DFDF91CF910F9108950F932091B6
:101C7000DB046770622B6093DB04621729F000E0DD
:101C800020E040E060E09EDF0F9108950F932091E7
:101C9000DB046770609562236093DB04621729F0B0
:101CA00000E020E040E060E08DDF0F9108959FB7F5
:101CB000F8948091EA04811102C09FBF089582E0E8
:101CC0008093E9002BE68091E80085FD03C09FBF6B
:101CD00080E008958091F100811103C02093E80015
:101CE000F2CF2091E80025FDE8CF2BE62093E80015
:101CF000E4CF2091BA04211105C0D9DF882329F04F
:101D00008093BA0481E090E0089590E080E0089527
:101D10009C019091BA04992329F01092BA04892F5A
:101D200090E00895C901C3DF8111FACF8FEF9FEFD3
:101D300008959C019091BA04892F911106C0C901A0
:101D4000B6DF882321F08093BA0490E008958FEFE6
:101D50009FEF0895E2EBF4E0128288EE93E0A0E0BA
:101D6000B0E083839483A583B683178281EB93E0ED
:101D700091838083ECEAF4E012821382148215824C
:101D800085EA93E0918380831092AA04089597FBDB
:101D9000072E16F4009406D077FD08D04FD007FC2C
:101DA00005D03EF4909581959F4F0895709561956B
:101DB0007F4F0895A1E21A2EAA1BBB1BFD010DC087
:101DC000AA1FBB1FEE1FFF1FA217B307E407F507EB
:101DD00020F0A21BB30BE40BF50B661F771F881FC7
:101DE000991F1A9469F760957095809590959B015D
:101DF000AC01BD01CF010895052E97FB16F40094A8
:101E00000FD057FD05D0D6DF07FC02D046F408C03E
:101E100050954095309521953F4F4F4F5F4F089516
:101E200090958095709561957F4F8F4F9F4F089546
:101E3000EE0FFF1F0590F491E02D0994AA1BBB1B28
:101E400051E107C0AA1FBB1FA617B70710F0A61BBA
:101E5000B70B881F991F5A95A9F780959095BC01DB
:101E6000CD0108951F93FC0199278827BC01E894B0
:101E700011911032E9F3193010F01E30C8F31B3203
:101E800049F01D3241F4689405C054D0610F711DB2
:101E9000811D911D119110531A30B8F33EF49095A5
:101EA0008095709561957F4F8F4F9F4F1F9108953B
:101EB00040EC53E018C0FB01DC018D9101908019CA
:101EC0000110D9F3990B0895FB01DC0141505040FA
:101ED00048F001900D920020C9F701C01D924150B9
:101EE0005040E0F70895FA01A191B081009719F4EC
:101EF0001097E1F0CD01DC01CD010D90002011F42F
:101F0000C00113C0FB012191222319F02015D9F73C
:101F1000F3CFFB012191201519F41E92119606C0F2
:101F20002223C1F70D900020A1F7D001FA01A1935F
:101F3000B0830895592F482F372F262F660F771F0C
:101F4000881F991F660F771F881F991F620F731FC5
:101F5000841F951F660F771F881F991F089512E031
:101F6000CEE2D2E003C0FE0163DF2196CF32D1077B
:061F7000D1F7F894FFCF49
:101F7600080328F00E0329F012032AF01C032BF0A5
:101F86006C0352F07F0351F020034FF0260350F00C
:101F96002B033AF02E033BF031033CF034033DF0C3
:101FA60037033EF03A033FF03D0340F0400341F073
:101FB600430342F0460343F04A0344F04E0345F020
:101FC600520353F05B0349F062034AF067034BF098
:101FD6006F034CF076034DF07A034EF0840301E074
:101FE600890302E0440204E0436F6D6D616E647321
:101FF6003A00202020206D6F757365206D6F766521
:10200600203C583E203C593E00202020206D6F7514
:10201600736520636C69636B00202020206D6F75EB
:1020260073652064626C636C69636B0020202020FA
:102036006D6F7573652070726573730020202020A4
:102046006D6F7573652072656C6561736500202020
:1020560020206B6579203C4B4559533E00202020BB
:1020660020737472203C535452494E473E004B45F0
:1020760059533A20537061636520736570617261CC
:1020860074656420284D61782038292C20697420D5
:1020960063616E2062653A00202020204D4F44493E
:1020A60046494552533A204354524C2C20534849F2
:1020B60046542C20414C5400202020204B45595397
:1020C600533A2055502C20444F574E2C204C454611
:1020D600542C2052494748542C20454E5445522CE6
:1020E600204553432C202E2E2E004552523D3100C2
:1020F6006B6579004552523D32004F4B0073747246
:10210600006D6F757365006D6F7665004552523DC3
:10211600340076657273696F6E004F4B3D312E3019
:102126002E300068656C70004552523D33002A2AF5
:102136002A2A2A2A2A2A2A2A2A2A2A2A2A2A2A2AF9
:102146002A2A2A2A2A2A2A2A2A2A2A2A2A2A2A2AE9
:102156002A2A002020202020204B6579626F617298
:10216600642F6D6F757365206F76657220554152C9
:102176005420202020202000454E5445520045532F
:1021860043004241434B53504143450054414200B2
:102196005249474854004C454654004631004632A1
:1021A60000463300463400463500463600463700C2
:1021B6004638004639004631300046313100463156
:1021C60032004E554D5F4C4F434B00494E534552DE
:1021D6005400484F4D4500504147455F5550004417
:1021E600454C45544500454E4400504147455F44E3
:1021F6004F574E004354524C005348494654000032
:102206000000003606890C400596057E05430564E8
:102216000500000000A30D890C4005880C00000095
:1022260000E40C890C4005CF0C790E880E990E003F
:00000001FF
