:100000002EC2000054C2000052C2000050C20000C4
:100010004EC200004CC200004AC2000048C20000AC
:1000200046C2000012C600000C948E090C94200AEF
:100030003EC200003CC200003AC2000038C20000CC
:1000400036C2000034C2000032C2000030C20000DC
:100050002EC200002CC200002AC200000C948C08A2
:1000600026C2000024C2000022C2000020C20000FC
:100070001EC200001CC200001AC2000018C200000C
:1000800016C2000014C2000012C2000010C200001C
:100090000EC200000CC200000AC2000008C200002C
:1000A00006C2000004C2000002C2000000C201003B
:1000B0000100110011000C0000E100000A00250001
:1000C0002500210000960000190039003900360093
:1000D000127A00001F0046004600440080700000B5
:1000E00022004D004D004A00004B00003600750014
:1000F00075007200403800004A009C009C00990086
:10010000802500007200EC00EC00E900C012000045
:10011000E900DA01DA01D70160090000D701B6036E
:10012000B603B303B0040000B3036E076E076B079A
:10013000580200006E07DC0EDC0ED80E2C01000009
:10014000DC0EC11DC11DBE1D012302230423082393
:1001500080230129022904290829402680264029D4
:100160008029102320234023802F402F202F102F61
:10017000022F012F10292029402C7DFD7DFB7DF7CA
:100180007DEF7DDF7E7F7EBF7EDF7EEF7EFD7EFEAC
:100190007DFE00010000DA03120002000038028D2B
:1001A000002200009B033F002100004A02090022B8
:1001B00001003B0338002101006302090022020014
:1001C000C50221002102007C020900220300E60290
:1001D00055002103009C020900220400730328003B
:1001E000210400B5020900030000340204010309E0
:1001F00004F4013E3E035400650065006E00730088
:10020000790020004B006500790062006F006100FA
:10021000720064002F004D006F00750073006500D0
:100220002F004A006F0079007300740069006300BA
:100230006B0000000403090409028D00050100C0E1
:10024000320904000001030101000921110100012C
:10025000223F000705830308000109040100010390
:100260000102000921110100012238000705840361
:100270000800010904020002030000000921110125
:100280000001222100070581034000010705020348
:1002900020000209040300010300000009211101EC
:1002A0000001225500070585030C00020904040023
:1002B00001030000000921110100012228000705A7
:1002C000860308000406C9FF0904A15C750815002F
:1002D00026FF0095400975810295200976910295C7
:1002E000040976B102C005010904A1011500250128
:1002F000750195200509190129208102150025079E
:100300003500463B017504950165140501093981E5
:100310004205010901A100150026FF03750A950495
:1003200009300931093209358102C0150026FF0361
:10033000750A9502093609368102C005010902A134
:100340000105091901290815002501950875018184
:100350000205010930093109381581257F75089595
:10036000038106050C0A38021581257F7508950161
:100370008106C0050C0901A101750A950419002A1E
:100380009C021500269C0281000501750895031941
:100390000029B7150026B7008100C005010906A194
:1003A0000175019508050719E029E7150025018168
:1003B0000295017508810395057501050819012944
:1003C00005910295017503910395067508150025A1
:1003D0007F05071900297F8100C01201000200007B
:1003E0000040C0168204710200010001C136C0261F
:1003F000C106C106C116C1062C5E74606162643418
:100400006667656E362D3738271E1F20212223246C
:1004100025267333762E77785F4445464748494A08
:100420004B4C4D4E4F505152535455565758595AA4
:100430005B5C5D2F3130636D350405060708090AE2
:100440000B0C0D0E0F101112131415161718191A84
:100450001B1C1D6F7170752A9E04080EA4041124C4
:100460001FBECFEFDAE0DEBFCDBF13E0A0E0B1E00A
:10047000E2E3FEE102C005900D92A238B107D9F780
:1004800024E0A2E8B3E001C01D92AD37B207E1F766
:1004900012E0CEE2D2E004C02197FE010E94760E67
:1004A000CC32D107C9F70E94600C0C940D0FA8CD77
:1004B000FB0101900020E9F73197AF01461B570B74
:1004C000DC01ED91FC910280F381E02D09940F9302
:1004D0001F93CF93DF93EC01EBDF8C01CE010E94E1
:1004E000460C800F911FDF91CF911F910F910895BE
:1004F00068E771E086E094E0EADF62E871E086E0B8
:1005000094E0E5DF64E971E086E094E0E0DF63EA2F
:1005100071E086E094E0DBDF62EB72E086E094E07D
:10052000D6DF64EB71E086E094E0D1DF6EED71E040
:1005300086E094E0CCDF6EEF71E086E094E0C7CF18
:100540008F929F92AF92BF92CF92DF92EF92FF92E3
:100550000F931F93CF93DF935B018C01F12CE12C60
:10056000D12CC12CEA14FB040CF058C0F801C08156
:10057000D1818CE6882E81E0982EF4016081718112
:10058000CE010E94B90E892B29F4F4018281938156
:10059000C82AD92AF4E08F0E911C88E7881681E0DA
:1005A000980659F7C0E0D1E068817981F80180812F
:1005B00091810E94B90E892B31F5B6018EE694E047
:1005C0000E94C70C8EE694E00E94CD0C6A818EE6F4
:1005D00094E00E94CA0C8EE694E00E94CD0C6AE082
:1005E00070E080E090E0D8D570E060E08EE694E0C6
:1005F0000E94C70C60E08EE694E00E94CA0C8EE672
:1006000094E00E94CD0C2496F1E0CC36DF0761F631
:100610008FEFE81AF80A0E5F1F4FA4CFDF91CF913A
:100620001F910F91FF90EF90DF90CF90BF90AF9010
:100630009F908F9008954F925F926F927F928F92CA
:100640009F92AF92BF92CF92DF92EF92FF920F9361
:10065000CF93DF93CDB7DEB728970FB6F894DEBF00
:100660000FBECDBF4B015C0129013A0180E490E04F
:100670009A83898300E020E040E860E88DE694E01A
:100680000E94770DA981BA811197BA83A983AB2BF8
:1006900089F79FE7C92ED12CE12CF12CC501B401BB
:1006A000A70196010E945A0E29833A834B835C83EB
:1006B000C301B201A70196010E945A0E2D833E8309
:1006C0004F835887C12CD12C76018D819E81AF81BB
:1006D000B885C816D906EA06FB0674F400E020E0E7
:1006E0004FE760E08DE694E00E94770D9FEFC91A16
:1006F000D90AE90AF90AE9CFC12CD12C76018981FE
:100700009A81AB81BC81C816D906EA06FB0674F44F
:1007100000E020E040E06FE78DE694E00E94770D76
:100720009FEFC91AD90AE90AF90AE9CF8FE7C82E5B
:10073000D12CE12CF12CC301B201A70196010E943A
:100740005A0E6983C501B401A70196010E945A0E91
:1007500000E020E049818DE694E00E94770D289624
:100760000FB6F894DEBF0FBECDBFDF91CF910F91D2
:10077000FF90EF90DF90CF90BF90AF909F908F90C1
:100780007F906F905F904F9008950F931F93CF933A
:10079000DF938B0161EB72E00E94B60EE801899352
:1007A000999301E010E061EB72E090E080E00E943C
:1007B000B60E89939993892B31F00A30110519F0FF
:1007C0000F5F1F4FF0CFC801DF91CF911F910F91A5
:1007D0000895CF92DF92EF92FF920F931F93CF93E2
:1007E000DF93CDB7DEB7C459D1090FB6F894DEBF99
:1007F0000FBECDBF8C0140E850E0BC01CE01019698
:100800000E94C20EBE016F577F4FC801BEDF8C0130
:1008100060E372E0892B91F0CF57DF4FE880F980D9
:10082000C158D04066E372E0C7010E94B90E892B1F
:10083000A9F40230110534F46AE372E086E094E032
:1008400046DE4FC0B8016150710981E890E08C0F1D
:100850009D1F029675DE60E472E0F0CF63E472E003
:10086000C7010E94B90E892B51F40230110524F3FF
:10087000BE016B5F7F4F8EE694E01ADEECCF67E43B
:1008800072E0C7010E94B90E892BC9F4033011052B
:100890009CF2CB57DF4F88819981C558D0400E9488
:1008A000900E6B017C01CD57DF4F88819981C35831
:1008B000D0400E94900EA7019601BDDECCCF6DE422
:1008C00072E0C7010E94B90E65E572E0892B09F458
:1008D000B5CF6EE572E0C7010E94B90E892B89F48D
:1008E00007DECC56DF4F0FB6F894DEBF0FBECDBF8C
:1008F000DF91CF911F910F91FF90EF90DF90CF90FC
:10090000089563E672E09ACF22982A98239A40E8E5
:1009100055E260E070E086E094E028D269E672E09B
:1009200086E094E0D4DD6EE872E086E094E0CFDD0E
:1009300069E672E086E094E0CADDDACD20E043E0CB
:1009400062E086E094E0E9C186E094E0CDC286E012
:1009500094E069D0181619063CF586E094E028D09A
:10096000E0918403F0918503EA57FC4F8083682F60
:1009700086E094E010D18091840390918503FC017E
:10098000EA57FC4F20812D3011F02A3041F41082BB
:10099000109285031092840386E893E01ACF0196A3
:1009A0009093850380938403089590E080E00895F8
:1009B000209160043091610428173907B9F49091AF
:1009C0001E0480911F04981789F0E0911E04F0E046
:1009D000E05EFB4F808120911E0430E02F5F3F4F8F
:1009E0002F73332720931E0490E008958FEF9FEF1D
:1009F000089520916004309161042817390781F42B
:100A000090911E0480911F04981751F0E0911E04EC
:100A1000F0E0E05EFB4F8081082E000C990B0895FA
:100A20008FEF9FEF089520916004309161042817A3
:100A3000390771F480911F0420911E0490E0805CBE
:100A40009F4F821B910960E470E00C94250E08957D
:100A500090E080E0089520916004309161042817AF
:100A6000390739F48FB7F89410921F0410921E04BE
:100A70008FBF0895DC011D96ED91FC911E9790812A
:100A80001C968C91809589238083089520E001979E
:100A90002FEF8F3F9207D9F708952091600430918E
:100AA00061042817390789F0FC0127892E7F278BDD
:100AB0002FB7F89410921F0410921E0490936104B3
:100AC000809360042FBF81E0089580E00895EF9245
:100AD000FF920F931F93CF93DF93EC01EA85FB8581
:100AE00099858F8981FF0AC08081892351F4DF9124
:100AF000CF911F910F91FF90EF90089580818923EE
:100B0000B1F78F859889C2DF88E0E82EF12C10E0DC
:100B100001E089899A89BADFEA85FB858081998518
:100B2000892331F1102B000F81E0E81AF10889F7D1
:100B30008B899C89ABDF8F8981FD109580911F0483
:100B400020911E0490E001968F73992728171906AB
:100B500099F0E0911F04F0E0E05EFB4F108380917C
:100B60001F0490E001968F73992780931F04BFCFD5
:100B7000802F80951823D7CF8F8981608F8BB7CF37
:100B8000FC01611101C076CFA585B6859C91848555
:100B9000892B8C930895DF92EF92FF920F931F930E
:100BA000CF93DF93EC018D899E89892B61F481E0DD
:100BB0008A8390E080E0DF91CF911F910F91FF90A9
:100BC000EF90DF900895162FDFB6F8946F89669541
:100BD0006170CE01D5DF8D899E89059657DF8F899B
:100BE00098E0E92EF12C01E081FF1AC0812F8023CB
:100BF00099F0CE013FDF8D899E8948DF000F81E0AB
:100C0000E81AF10899F7CE0135DFDFBE8D899E899C
:100C10003DDF81E090E0CFCF61E0CE01B1DFEBCFEF
:100C2000812F802379F061E0CE01AADF8D899E8932
:100C30002DDF000F81E0E81AF10891F761E0CE01A5
:100C40009FDFE3CFCE0116DFF1CF1F920F920FB6D9
:100C50000F9211242F933F934F935F936F937F9342
:100C60008F939F93AF93BF93EF93FF938091600413
:100C700090916104009709F02ADFFF91EF91BF91F5
:100C8000AF919F918F917F916F915F914F913F9124
:100C90002F910F900FBE0F901F9018951F93CF9319
:100CA000DF93EC01162F862F75D1612F70E0FB01C9
:100CB000ACD1660F771FFB01E85BFE4FE491EC8738
:100CC000FB01E75BFE4FE491F0E03296FE87ED8793
:100CD000DF91CF911F9108951F93CF93DF93EC0184
:100CE000162F862F68D12F89812F90E021FD02C019
:100CF000FC018BD11887880F991FFC01E85BFE4F20
:100D0000E491E987FC01E75BFE4FE491F0E0FB87AB
:100D1000EA87DF91CF911F9108951F93CF93DF93BF
:100D2000EC01162F1A8288EE93E0A0E0B0E08B83EE
:100D30009C83AD83BE831F8286E593E0998388837D
:100D4000188A1F861A8A198A1C8A1B8A1E8A1D8A7B
:100D50008F898E7F20FB81F98F8B642FCE019EDFE0
:100D6000612FCE01DF91CF911F91B6CF0F931F93CB
:100D7000CF93DF93EC011E8A1D8A1C8A1B8A1A8A74
:100D8000198A90E080E0FC01E455FF4F0591159130
:100D900025913491041715072607370709F05CC021
:100DA000FC01E055FF4F25913491388B2F87FC01D2
:100DB000EE54FF4F259134913A8B298BFC01EC5472
:100DC000FF4F259134913C8B2B8BFC01EA54FF4F54
:100DD000859194919E8B8D8B8B899C89892BB1F108
:100DE0008885853020F093EF980F933060F59091CF
:100DF0006800853028F08D50F0E0E0E0833010F49A
:100E0000E8E6F0E0916090839885953030F083EFCC
:100E1000890FF0E0E0E0833010F4EBE6F0E02081B1
:100E2000943010F581E0092E01C0880F0A94EAF78A
:100E3000822B953028F09D50F0E0E0E0933010F4E4
:100E4000EBE6F0E080838D899E8920DECE01DF9184
:100E5000CF911F910F9121CE0C968C39910509F0FD
:100E600092CF188A1F86B8CF83EF890F833048F45A
:100E700081E0692F6950770B01C0880F6A95EAF706
:100E8000D7CF80E8D5CFFC012085253020F083EF37
:100E9000820F8330B8F430916B002430A0F481E0ED
:100EA00090E0022E01C0880F0A94EAF78095832310
:100EB000253028F02D50F0E0E0E0233010F4EBE690
:100EC000F0E08083089583EF820F833058F4822FFF
:100ED0008950990BAC0181E090E001C0880F4A95E0
:100EE000EAF7E4CF8FE7E3CF26E533E0FC01318377
:100EF0002083C9CF1DBA109268001CBC10BE1FBA57
:100F000010927A0010926E0010926F001092710091
:100F1000109272001092C900ECEBF0E0108214B84D
:100F200017B81AB81DB810BA108215B818B81BB87F
:100F30001EB811BA0895F894E1E6F0E020E82083A5
:100F4000108283E084BD85BDEEE6F0E080818160A3
:100F5000808381E08093800092E090938100809371
:100F60009000909391009093C00094E09093C10002
:100F70008093C2008093C3001092C40086E88093DF
:100F80007A0020937B0010927E0010927D0043D166
:100F900078940895893170F4E8E4F1E0880FE80F5F
:100FA000F11D2591E491F0E09FB7F8948181822BA7
:100FB00081839FBF0895893118F5A5EFA80FAC3044
:100FC00000F5EAE7F1E0AA0FEA0FF11DA591B0E004
:100FD0009591E8E4F1E0880FE80FF11D2591E49187
:100FE000F0E04FB7F8943181822F8095232F28238A
:100FF0002183228182238283EC919E239C934FBF85
:1010000008959FEFB0E0A0E0E4CFE93120F4EE0FC7
:10101000E45FF74F09940895289A0895299A08954E
:101020002A9A08952B9A08952F9A38C0589A26C064
:10103000599A08955A9A08955B9A0895469A34C029
:10104000479A38C05E9A08955F9A3AC02C9A0895DC
:101050002D9A18C02E9A1CC08F9A08958E9A0895C2
:101060008D9A08958C9A0895899A0895889A08957A
:101070005C9A08955D9A0895769A0895E4B5EF7D97
:10108000E4BD0895E0918000EF77E093800008953B
:10109000E0918000EF7DE09380000895E091800072
:1010A000E77FE09380000895E0919000EF77E09370
:1010B00090000895E091C000EF77E093C00008959C
:1010C000E091C200E77FE093C2000895F89484B7EE
:1010D000877F84BF80916000806180936000109260
:1010E000600080E29EE40197F1F781E08093E000E8
:1010F00080E28093D80080E69AEE0197F1F7FADE5D
:101100000C94003FFFCFF894F5DE80E69AEE01974D
:10111000F1F70C940000FFCF8F938FB78F938091DE
:1011200062048D5F8D37D0F48093620480916304F4
:101130008F5F80936304D8F0809164048F4F809315
:101140006404A8F0809165048F4F8093650478F063
:10115000809166048F4F8093660409C08D578093F9
:101160006204809163048E5F8093630428F780910A
:1011700067048C5F8093670458F0809168048F4FF8
:101180008093680428F0809169048F4F80936904EC
:101190008F918FBF8F911895CF92DF92EF92FF9230
:1011A0006B017C0119D09B01C114D104E104F1044D
:1011B00029F4FF90EF90DF90CF9008950DD0621B3F
:1011C000730B683E734080F381E0C81AD108E108D0
:1011D000F10828513C4FE8CF0FB6F89466B515B228
:1011E0007091670480916804909169040FBE10FEAD
:1011F00005C06F3F19F07C5F8F4F9F4F1124002473
:10120000660F001C660F001C702908958091E8008D
:1012100080FFFCCF08958091D80087FF02C085FF32
:101220007CC081E08093D70080EA8093D80082E17F
:1012300089BD09B400FEFDCF80E98093D8001092EB
:10124000E0001092AC041092AB041092AA04109229
:10125000A2041092A3041092A4041092A504109268
:10126000A6041092A7041092A8041092A90481E089
:101270008093A1049DE79093A00410929F04109284
:101280009E0410929D0480939C04109290041092EE
:10129000910410929204109293048FE0809394042E
:1012A00090E29093950480E88093960410929704BE
:1012B00022E02093980428E02093990490939A04C4
:1012C00080939B04109288041092890410928A04DF
:1012D00010928B0410928C0410928D0410928E0444
:1012E00010928F0410928104109280041092830453
:1012F0001092820410928504109284041092870444
:101300001092860410927D0410927E0410927F0445
:101310001092E1008CE08093E20008951F920F92FA
:101320000FB60F9211242F933F938F939F93EF93B8
:10133000FF939091E1001092E10093FF0FC0109293
:10134000E90081E08093EB001092EC0082E380934F
:10135000ED0088E08093F0001092AC0492FF41C051
:101360008091AC048823E9F18091AA04882379F064
:1013700081508093AA0481110AC081E08093E90022
:101380008091E80085FD59C08AE38093E800809150
:10139000A004882331F180916B048F5F80936B04EC
:1013A0008370F9F483E08093E9008091E80085FF81
:1013B00018C080919F048F5F80939F042091A004A8
:1013C00082130FC010929F04E2EAF4E02AEA34E0AC
:1013D00081918093F1002E173F07D1F78AE3809324
:1013E000E80090FF0CC080E18093E2001092AC0412
:1013F00081E08093AB0480EA8093D80019BC80918F
:10140000AB04882379F094FF0DC082E189BD09B453
:1014100000FEFDCF80E98093D8008DE08093E2004C
:101420001092AB04FF91EF919F918F913F912F917B
:101430000F900FBE0F901F9018951092F100A0CF43
:101440001F920F920FB60F921124EF92FF920F93FB
:101450001F932F933F934F935F936F937F938F933C
:101460009F93AF93BF93CF93DF93EF93FF9310922C
:10147000E9008091E80083FF21C0D091F100C09184
:10148000F1000091F1001091F100E090F100F09076
:10149000F1002091F1003091F10082EF8093E8009B
:1014A000C63009F05AC08EE0E2E9F1E0459155916D
:1014B0000417150739F035968150C1F781E2809302
:1014C000EB002BC045915591E416F50611F03396CB
:1014D000F3CF4591559184912F3F310519F010F0CC
:1014E0002FEF30E0821708F4282F3EEF8091E800BC
:1014F000982F9570D9F382FD10C0822F213408F007
:1015000080E4982F911122C0922F981B892F30933D
:10151000E800911119C02034B8F4FF91EF91DF91E8
:10152000CF91BF91AF919F918F917F916F915F917B
:101530004F913F912F911F910F91FF90EF900F903E
:101540000FBE0F901F901895282FD0CFFA0145910C
:101550004093F100AF019150D5CFC53041F48EEFEB
:101560008093E80053DE00680093E300D6CFC930D3
:1015700001F5D1115EC00093AC041092AA048EEF65
:101580008093E80081E0ECEEF3E021E08093E90055
:101590002093EB0095919093EC0095919093ED0042
:1015A0008F5F873099F78EE18093EA001092EA000E
:1015B000B4CFC83041F4D038E1F528DE8091AC04D6
:1015C0008093F10049C0C11111C020DED23849F426
:1015D000E092E900C091EB00C5FBCC27C0F9109266
:1015E000E900C093F1001092F10036C08C2F8D7F7E
:1015F0008130F9F4D230E9F40115110509F003C185
:101600004E2D4F778FEF840F873008F0FCC08EEFA0
:101610008093E8004093E900C33009F44FCF89E19B
:101620008093EB0081E090E001C0880F4A95EAF7D3
:10163000BBCFE114F10409F0E9C0D13AF1F4C130B3
:1016400079F4E4DDE2EAF4E08AEA94E0219120937F
:10165000F1008E179F07D1F78EEF8093E8005DCFE2
:10166000C23021F4D3DD8091A004AACFC33009F0A9
:1016700025CFCCDD8091A104A3CFD13209F0B8C031
:10168000C93061F48091E80082FFFCCF8091F100C5
:1016900080939E048BEF8093E800DECFCA3029F45C
:1016A0001093A00410929F04D7CFCB3009F006CF3F
:1016B0000093A104D1CFC33009F000CFA7DD809102
:1016C0009C047ECFD13209F093C0CB3009F0F6CE26
:1016D00000939C04C1CF93E0E916F10491F4D13A50
:1016E00009F086C0C13009F0E9CE90DDE0E9F4E010
:1016F0008CE994E021912093F1008E179F07D1F798
:10170000ABCF84E0E816F10491F4D13A09F070C04F
:10171000C13009F0D3CE7ADDE8E8F4E080E994E066
:1017200021912093F1008E179F07D1F795CF92E07A
:10173000E916F10409F05CC0C13011F53EEFD13A71
:1017400009F0BCCE8091E800982F9570D9F382FD06
:10175000E4CE822F213408F080E4982F91110CC040
:10176000922F981B892F3093E800911103C02034E9
:1017700008F4D3CE282FE6CF1092F1009150EECF8F
:10178000C930B1F5D13209F099CE0115134009F0F5
:1017900095CE2430310509F091CE8091E80082FF8A
:1017A000FCCF3091F1002091F1009091F1008091F7
:1017B000F1004BEF4093E8004EEF4093E800393AD8
:1017C00051F4253409F07ACE923C09F077CE8B366D
:1017D00009F074CE7BDC3B3809F070CE253C09F073
:1017E0006DCE9D3109F06ACE803709F067CE8BDC73
:1017F000C93C09F063CED03409F060CE8EEF8093FF
:10180000E80004DDF4CFE114F10491F381E0E8167F
:10181000F10409F060CFD13A09F054CFC13009F09A
:101820004ACFF4DC80919D048093F1001092F10086
:101830001092F1001092F100D6CE0895CF92DF926F
:10184000EF92FF920F931F93CF93DF936C01EB0105
:101850007B01E40EF51E10E000E0CE15DF0561F01F
:101860006991D601ED91FC910190F081E02DC601C6
:101870000995080F191FF1CFC801DF91CF911F9172
:101880000F91FF90EF90DF90CF900895CF93DF936B
:1018900000D0CDB7DEB72DE029832AE02A83DC0112
:1018A000ED91FC910280F381E02D42E050E0BE0119
:1018B0006F5F7F4F09950F900F90DF91CF91089543
:1018C0003ADB22D844D8FECF8091AC04882371F053
:1018D0008FB7F89492E09093E9009BE62091E8009E
:1018E00025FF03C09093E800F9CF8FBF10927C04CE
:1018F0000895FC018091AC04882369F19FB7F894A6
:1019000081E08093E9002091E400275E3091E800B7
:1019100035FD0EC09FBF9091E4009217E1F09091C9
:10192000AC049923C1F09FB7F8948093E900EECFFF
:101930006093F1008091E80085FD09C08AE38093FF
:10194000E8001092AA049FBF81E090E0089584E02F
:101950008093AA04F8CF81E0828390E080E008952C
:101960006032710540F46A30710569F06B307105C1
:1019700061F48BE208956038710538F468527C4F49
:10198000FB018491089588E2089580E008956093B2
:10199000A20408956093A40408958091AC04882360
:1019A00009F441C08FB7F89493E09093E9009091C7
:1019B000E4009E5C23E03091E80035FD0EC08FBF4F
:1019C0008091AC04882379F18091E400981759F153
:1019D0008FB7F8942093E900EECF9091A2049093F2
:1019E000F1009091A3049093F1009091A40490933E
:1019F000F1009091A5049093F1009091A60490932A
:101A0000F1009091A7049093F1009091A804909315
:101A1000F1009091A9049093F1009AE39093E8006B
:101A200010929F048FBF0895CF93DF93EC0182E063
:101A300066FF80E08093A2041092A3046F7360930A
:101A4000A4041092A5041092A6041092A704109268
:101A5000A8041092A904CE01A0DF1092A204109253
:101A6000A404CE01DF91CF9198CF6111DDCF08950D
:101A7000CF93DF93EC0167FD0CC01B8270E0CE01B9
:101A80006FDF682FCE01F1DF81E090E0DF91CF9131
:101A90000895603CD0F46F738B81813039F41B82E0
:101AA0008C819D819C01262BB901E9CF823061F7A1
:101AB00030E4639FB00111248C819D81682B792BC8
:101AC0007D836C8381E08B83DFCF603E38F480E4DC
:101AD000689FB0011124607C7770F2CF8FEF603F78
:101AE00090F76295607F1C826D8382E0ECCF0F934C
:101AF0008091AC048823B9F1603809F461E840387A
:101B000009F441E8203809F421E8003809F401E833
:101B10008FB7F89494E09093E9009091E4009E5C74
:101B200034E05091E80055FD0EC08FBF8091AC04A9
:101B30008823C9F08091E4009817A9F08FB7F89432
:101B40003093E900EECF90919D049093F100609363
:101B5000F1004093F1002093F1000093F1009AE32B
:101B60009093E8008FBF0F9108959FB7F8948091EC
:101B7000AC04811102C09FBF089582E08093E90008
:101B80002BE68091E80085FD03C09FBF80E00895AB
:101B90008091F100811103C02093E800F2CF2091E1
:101BA000E80025FDE8CF2BE62093E800E4CF209164
:101BB0007C04211105C0D9DF882329F080937C049F
:101BC00081E090E0089590E080E008959C0190917C
:101BD0007C04992329F010927C04892F90E00895C9
:101BE000C901C3DF8111FACF8FEF9FEF08959C01E8
:101BF00090917C04892F911106C0C901B6DF88231A
:101C000021F080937C0490E008958FEF9FEF08957A
:101C1000E4E7F4E0128288EE93E0A0E0B0E0838392
:101C20009483A583B683178284E793E091838083AE
:101C3000EEE6F4E0128213821482158288E693E0C5
:101C40009183808310926C04089597FB072E16F4FD
:101C5000009406D077FD08D04FD007FC05D03EF4A5
:101C6000909581959F4F0895709561957F4F089548
:101C7000A1E21A2EAA1BBB1BFD010DC0AA1FBB1F90
:101C8000EE1FFF1FA217B307E407F50720F0A21B02
:101C9000B30BE40BF50B661F771F881F991F1A946F
:101CA00069F760957095809590959B01AC01BD0199
:101CB000CF010895052E97FB16F400940FD057FD21
:101CC00005D0D6DF07FC02D046F408C050954095F9
:101CD000309521953F4F4F4F5F4F089590958095D8
:101CE000709561957F4F8F4F9F4F0895EE0FFF1FA7
:101CF0000590F491E02D0994AA1BBB1B51E107C08C
:101D0000AA1FBB1FA617B70710F0A61BB70B881F8B
:101D1000991F5A95A9F780959095BC01CD0108951A
:101D20001F93FC0199278827BC01E8941191103278
:101D3000E9F3193010F01E30C8F31B3249F01D32A0
:101D400041F4689405C054D0610F711D811D911D2F
:101D5000119110531A30B8F33EF490958095709518
:101D600061957F4F8F4F9F4F1F91089542E853E039
:101D700018C0FB01DC018D91019080190110D9F38D
:101D8000990B0895FB01DC014150504048F001904F
:101D90000D920020C9F701C01D9241505040E0F75C
:101DA0000895FA01A191B081009719F41097E1F01C
:101DB000CD01DC01CD010D90002011F4C00113C054
:101DC000FB012191222319F02015D9F7F3CFFB0154
:101DD0002191201519F41E92119606C02223C1F7F5
:101DE0000D900020A1F7D001FA01A193B0830895CE
:101DF000592F482F372F262F660F771F881F991FBF
:101E0000660F771F881F991F620F731F841F951F0E
:101E1000660F771F881F991F089512E0CEE2D2E067
:101E200003C0FE0163DF2196CF32D107D1F7F894CA
:021E3000FFCFE2
:101E3200B30228F0B90229F0BD022AF0C7022BF042
:101E4200230352F0420351F0CB024FF0D10250F083
:101E5200D6023AF0D9023BF0DC023CF0DF023DF060
:101E6200E2023EF0E5023FF0E80240F0EB0241F010
:101E7200EE0242F0F10243F0F50244F0F90245F0BD
:101E8200FD0253F0060349F011034AF01A034BF026
:101E920026034CF031034DF039034EF0470301E0C5
:101EA2004C0302E0FA0104E0436F6D6D616E6473EE
:101EB2003A00202020206D6F757365203C583E202B
:101EC2003C593E00202020206B6579203C4B45592F
:101ED200533E0020202020737472203C53545249F8
:101EE2004E473E004B4559533A205370616365207B
:101EF20073657061726174656420284D6178203861
:101F0200292C2069742063616E2062653A002020CA
:101F120020204D4F444946494552533A204354529A
:101F22004C2C2053484946542C20414C540020202C
:101F320020204B455953533A2055502C20444F579B
:101F42004E2C204C4546542C2052494748542C20B4
:101F5200454E5445522C204553432C202E2E2E0004
:101F62004552523D31006B6579004552523D320077
:101F72004F4B00737472006D6F75736500766572F6
:101F820073696F6E004F4B3D312E302E3000686505
:101F92006C70004552523D33002A2A2A2A2A2A2AE4
:101FA2002A2A2A2A2A2A2A2A2A2A2A2A2A2A2A2A8F
:101FB2002A2A2A2A2A2A2A2A2A2A2A2A2A002020BD
:101FC200202020204B6579626F6172642F6D6F75DE
:101FD2007365206F7665722055415254202020206F
:101FE200202000454E544552004553430042414390
:101FF2004B535041434500544142005249474854D3
:10200200004C4546540046310046320046330046F5
:102012003400463500463600463700463800463919
:10202200004631300046313100463132004E554DC6
:102032005F4C4F434B004E554D5F494E53455254F2
:10204200004E554D5F484F4D45004E554D5F504136
:1020520047455F5550004E554D5F44454C455445EC
:10206200004E554D5F454E44004E554D5F50414721
:10207200455F444F574E004354524C005348494623
:10208200540000000000CB051E0CD5042B051305DF
:10209200D804F90400000000380D1E0CD5041D0CF4
:1020A20000000000790C1E0CD504640CD70DE60D5F
:0220B200F70D28
:00000001FF
